{
  "contractName": "lottery",
  "abi": [
    {
      "inputs": [],
      "stateMutability": "nonpayable",
      "type": "constructor"
    },
    {
      "inputs": [],
      "name": "manager",
      "outputs": [
        {
          "internalType": "address",
          "name": "",
          "type": "address"
        }
      ],
      "stateMutability": "view",
      "type": "function",
      "constant": true
    },
    {
      "inputs": [
        {
          "internalType": "uint256",
          "name": "",
          "type": "uint256"
        }
      ],
      "name": "players",
      "outputs": [
        {
          "internalType": "address payable",
          "name": "",
          "type": "address"
        }
      ],
      "stateMutability": "view",
      "type": "function",
      "constant": true
    },
    {
      "inputs": [],
      "name": "enter",
      "outputs": [],
      "stateMutability": "payable",
      "type": "function",
      "payable": true
    },
    {
      "inputs": [],
      "name": "pickWinner",
      "outputs": [],
      "stateMutability": "nonpayable",
      "type": "function"
    },
    {
      "inputs": [],
      "name": "getPlayers",
      "outputs": [
        {
          "internalType": "address payable[]",
          "name": "",
          "type": "address[]"
        }
      ],
      "stateMutability": "view",
      "type": "function",
      "constant": true
    }
  ],
  "bytecode": "0x608060405234801561001057600080fd5b50336000806101000a81548173ffffffffffffffffffffffffffffffffffffffff021916908373ffffffffffffffffffffffffffffffffffffffff160217905550610e78806100606000396000f3fe60806040526004361061004a5760003560e01c8063481c6a751461004f5780635d495aea1461007a5780638b5b9ccc14610091578063e97dcb62146100bc578063f71d96cb146100c6575b600080fd5b34801561005b57600080fd5b50610064610103565b6040516100719190610741565b60405180910390f35b34801561008657600080fd5b5061008f610127565b005b34801561009d57600080fd5b506100a66102d6565b6040516100b3919061082c565b60405180910390f35b6100c4610364565b005b3480156100d257600080fd5b506100ed60048036038101906100e89190610889565b6104f0565b6040516100fa91906108c5565b60405180910390f35b60008054906101000a900473ffffffffffffffffffffffffffffffffffffffff1681565b60008054906101000a900473ffffffffffffffffffffffffffffffffffffffff1673ffffffffffffffffffffffffffffffffffffffff163373ffffffffffffffffffffffffffffffffffffffff16146101b5576040517f08c379a00000000000000000000000000000000000000000000000000000000081526004016101ac9061093d565b60405180910390fd5b60006001805490506101c561052f565b6101cf919061098c565b90506000309050600182815481106101ea576101e96109bd565b5b9060005260206000200160009054906101000a900473ffffffffffffffffffffffffffffffffffffffff1673ffffffffffffffffffffffffffffffffffffffff166108fc8273ffffffffffffffffffffffffffffffffffffffff16319081150290604051600060405180830381858888f19350505050158015610271573d6000803e3d6000fd5b50600067ffffffffffffffff81111561028d5761028c6109ec565b5b6040519080825280602002602001820160405280156102bb5781602001602082028036833780820191505090505b50600190805190602001906102d1929190610659565b505050565b6060600180548060200260200160405190810160405280929190818152602001828054801561035a57602002820191906000526020600020905b8160009054906101000a900473ffffffffffffffffffffffffffffffffffffffff1673ffffffffffffffffffffffffffffffffffffffff1681526020019060010190808311610310575b5050505050905090565b60008054906101000a900473ffffffffffffffffffffffffffffffffffffffff1673ffffffffffffffffffffffffffffffffffffffff163373ffffffffffffffffffffffffffffffffffffffff16036103f2576040517f08c379a00000000000000000000000000000000000000000000000000000000081526004016103e990610a67565b60405180910390fd5b600015156103fe6105ad565b151514610440576040517f08c379a000000000000000000000000000000000000000000000000000000000815260040161043790610ad3565b60405180910390fd5b670de0b6b3a764000034101561048b576040517f08c379a000000000000000000000000000000000000000000000000000000000815260040161048290610b3f565b60405180910390fd5b6001339080600181540180825580915050600190039060005260206000200160009091909190916101000a81548173ffffffffffffffffffffffffffffffffffffffff021916908373ffffffffffffffffffffffffffffffffffffffff160217905550565b6001818154811061050057600080fd5b906000526020600020016000915054906101000a900473ffffffffffffffffffffffffffffffffffffffff1681565b600060024443600160405160200161054993929190610c9e565b6040516020818303038152906040526040516105659190610d51565b602060405180830381855afa158015610582573d6000803e3d6000fd5b5050506040513d601f19601f820116820180604052508101906105a59190610d9e565b60001c905090565b600080600090505b600180549050811015610650573373ffffffffffffffffffffffffffffffffffffffff16600182815481106105ed576105ec6109bd565b5b9060005260206000200160009054906101000a900473ffffffffffffffffffffffffffffffffffffffff1673ffffffffffffffffffffffffffffffffffffffff160361063d576001915050610656565b808061064890610dfa565b9150506105b5565b50600090505b90565b8280548282559060005260206000209081019282156106d2579160200282015b828111156106d15782518260006101000a81548173ffffffffffffffffffffffffffffffffffffffff021916908373ffffffffffffffffffffffffffffffffffffffff16021790555091602001919060010190610679565b5b5090506106df91906106e3565b5090565b5b808211156106fc5760008160009055506001016106e4565b5090565b600073ffffffffffffffffffffffffffffffffffffffff82169050919050565b600061072b82610700565b9050919050565b61073b81610720565b82525050565b60006020820190506107566000830184610732565b92915050565b600081519050919050565b600082825260208201905092915050565b6000819050602082019050919050565b600061079382610700565b9050919050565b6107a381610788565b82525050565b60006107b5838361079a565b60208301905092915050565b6000602082019050919050565b60006107d98261075c565b6107e38185610767565b93506107ee83610778565b8060005b8381101561081f57815161080688826107a9565b9750610811836107c1565b9250506001810190506107f2565b5085935050505092915050565b6000602082019050818103600083015261084681846107ce565b905092915050565b600080fd5b6000819050919050565b61086681610853565b811461087157600080fd5b50565b6000813590506108838161085d565b92915050565b60006020828403121561089f5761089e61084e565b5b60006108ad84828501610874565b91505092915050565b6108bf81610788565b82525050565b60006020820190506108da60008301846108b6565b92915050565b600082825260208201905092915050565b7f6767676700000000000000000000000000000000000000000000000000000000600082015250565b60006109276004836108e0565b9150610932826108f1565b602082019050919050565b600060208201905081810360008301526109568161091a565b9050919050565b7f4e487b7100000000000000000000000000000000000000000000000000000000600052601260045260246000fd5b600061099782610853565b91506109a283610853565b9250826109b2576109b161095d565b5b828206905092915050565b7f4e487b7100000000000000000000000000000000000000000000000000000000600052603260045260246000fd5b7f4e487b7100000000000000000000000000000000000000000000000000000000600052604160045260246000fd5b7f6d616e616765722063616e7420656e7465720000000000000000000000000000600082015250565b6000610a516012836108e0565b9150610a5c82610a1b565b602082019050919050565b60006020820190508181036000830152610a8081610a44565b9050919050565b7f616c726561647920656e74657265640000000000000000000000000000000000600082015250565b6000610abd600f836108e0565b9150610ac882610a87565b602082019050919050565b60006020820190508181036000830152610aec81610ab0565b9050919050565b7f6d696e20726571206e6f742066696c6c65640000000000000000000000000000600082015250565b6000610b296012836108e0565b9150610b3482610af3565b602082019050919050565b60006020820190508181036000830152610b5881610b1c565b9050919050565b6000819050919050565b610b7a610b7582610853565b610b5f565b82525050565b600081549050919050565b600081905092915050565b60008190508160005260206000209050919050565b610bb481610788565b82525050565b6000610bc68383610bab565b60208301905092915050565b60008160001c9050919050565b600073ffffffffffffffffffffffffffffffffffffffff82169050919050565b6000610c12610c0d83610bd2565b610bdf565b9050919050565b6000610c258254610bff565b9050919050565b6000600182019050919050565b6000610c4482610b80565b610c4e8185610b8b565b9350610c5983610b96565b8060005b83811015610c9157610c6e82610c19565b610c788882610bba565b9750610c8383610c2c565b925050600181019050610c5d565b5085935050505092915050565b6000610caa8286610b69565b602082019150610cba8285610b69565b602082019150610cca8284610c39565b9150819050949350505050565b600081519050919050565b600081905092915050565b60005b83811015610d0b578082015181840152602081019050610cf0565b83811115610d1a576000848401525b50505050565b6000610d2b82610cd7565b610d358185610ce2565b9350610d45818560208601610ced565b80840191505092915050565b6000610d5d8284610d20565b915081905092915050565b6000819050919050565b610d7b81610d68565b8114610d8657600080fd5b50565b600081519050610d9881610d72565b92915050565b600060208284031215610db457610db361084e565b5b6000610dc284828501610d89565b91505092915050565b7f4e487b7100000000000000000000000000000000000000000000000000000000600052601160045260246000fd5b6000610e0582610853565b91507fffffffffffffffffffffffffffffffffffffffffffffffffffffffffffffffff8203610e3757610e36610dcb565b5b60018201905091905056fea264697066735822122011a99e52095b2fd1064cbdcdb2e9cda2a29269dacc4e6a5930ae1089383ce84464736f6c634300080e0033",
  "immutableReferences": {},
  "source": "// SPDX-License-Identifier: MIT \r\n\r\npragma solidity >=0.5.0 < 0.9.0;\r\n\r\ncontract lottery\r\n{\r\naddress public manager;\r\naddress payable [] public players;\r\n\r\nconstructor() {\r\nmanager = msg.sender;\r\n\r\n}\r\n\r\nfunction alreadyEnterd()view private returns (bool)\r\n{\r\n    for(uint i =0;i<players.length; i++){\r\n        if (players[i] ==msg.sender)\r\n        return true;\r\n    } \r\n    return false;\r\n}\r\n\r\nfunction enter() payable public\r\n{\r\nrequire(msg.sender!= manager, \"manager cant enter\");\r\nrequire( alreadyEnterd() == false, \"already entered\");\r\nrequire(msg.value>=1 ether, \"min req not filled\");\r\nplayers.push(payable(msg.sender));\r\n}\r\nfunction random() view private returns(uint){\r\nreturn uint(sha256(abi.encodePacked(block.difficulty,block.number,players)));\r\n}\r\nfunction pickWinner()public{\r\nrequire (msg.sender == manager, \"gggg\");\r\nuint index= random()% players.length;\r\naddress contractAddress = address(this);\r\n players[index].transfer(contractAddress.balance);\r\nplayers = new address payable[](0);\r\n}\r\nfunction getPlayers() view public returns(address payable[] memory){\r\nreturn players;\r\n}\r\n\r\n\r\n}",
  "sourcePath": "C:\\Users\\ANMOL SEN\\Desktop\\truffle\\contracts\\lottery.sol",
  "compiler": {
    "name": "solc",
    "version": "0.8.14+commit.80d49f37.Emscripten.clang"
  },
  "schemaVersion": "3.4.7",
  "updatedAt": "2022-06-02T10:15:12.219Z",
  "networkType": "ethereum",
  "devdoc": {
    "kind": "dev",
    "methods": {},
    "version": 1
  },
  "userdoc": {
    "kind": "user",
    "methods": {},
    "version": 1
  }
}